:10000000EDC0000007C1000005C1000003C10000F1
:1000100001C10000FFC00000FDC00000FBC00000E7
:10002000F9C00000F7C00000F5C0000041C60000A4
:10003000E6C60000EFC00000EDC00000EBC000000D
:10004000E9C00000E7C00000E5C00000E3C0000018
:10005000E1C00000DFC00000DDC000007BC3000085
:10006000D9C00000D7C00000D5C00000D3C0000038
:10007000D1C0000063078507770885077708CA079E
:10008000E70777083A084C0812034600610064004D
:10009000650072004F006E0065000000180341000B
:1000A00072006400750069006E006F00200055004A
:1000B0006E006F00000024036B0075007700610084
:1000C00074006100790040006E00690066007400F1
:1000D00079002E0063006F006D00000032034100C4
:1000E00072006400750069006E006F002000280037
:1000F0007700770077002E006100720064007500C1
:1001000069006E006F002E0063006300290000008C
:100110000403090409026500020100C03209040059
:10012000000001010000092401000109000101098A
:100130000401000201030000072401000141000640
:100140002402010100062402020200092403010323
:100150000102010009240302040101010009050153
:10016000024000000000052501010109058202404E
:1001700000000000052501010309023E0002010004
:10018000C032090400000102020100052400011030
:10019000042402060524060001070582030800FF67
:1001A00009040100020A00000007050402400001E2
:1001B000070583024000011201100100000008EB56
:1001C000034820000001020001120110010200009A
:1001D000084123010001000102DC010011241FBEBF
:1001E000CFEFD2E0DEBFCDBF11E0A0E0B1E0E2E1B1
:1001F000F5E102C005900D92A233B107D9F722E0D4
:10020000A2E3B1E001C01D92A238B207E1F727D204
:100210000C94870AF5CEFC01E058FF4FA081B18114
:100220006C93A081B1819D012F5F3F4F318320836B
:100230002E173F0721F412969C938E9311972FB798
:10024000F894FC01EC57FF4F80818F5F80832FBFB4
:100250000895DC01AE57BF4FED91FC9111972191AC
:100260001196FC93EE93AC0140585F4FE417F507ED
:1002700011F48D939C933FB7F894FC01EC57FF4F1A
:100280009081915090833FBF822F0895CF93DF9349
:10029000FC01909157013081832F8F70823028F4B8
:1002A000653010F164503496F6CFEF01219621E0CD
:1002B0003B7044EF480F5991A92FB0E0AA5CBE4FA4
:1002C0005C939F5F9F71213029F4853049F38F3013
:1002D00039F4E6CF223021F4323011F3423000F30A
:1002E0002F5F243041F7DCCF90935701DF91CF91FE
:1002F0000895982F80913501882319F1E0913401F8
:1003000081E08E0F80933401973F69F4AE2FB0E007
:10031000A85ABE4F9C93EC5FE093580110923501B0
:100320001092330158C0F0E0E85AFE4F90838430B9
:1003300011F080E008958093580181E080933401AA
:100340000895983F50F08FE08093580190935901A1
:1003500010925A0110925B013EC097FF0DC0903F72
:1003600049F421E0209335019093590192E0909354
:10037000340108951092330180913301811110C02E
:10038000392F32953F70232F2770220F2E5F209335
:1003900033013093600190936101109263010895DD
:1003A000E82FF0E0EF5DFE4F4081282F217030E014
:1003B000F901E05AFE4F9283842F8F7080933301AE
:1003C00047FFB7CF84E0E0E6F1E0A8E5B1E00190B7
:1003D0000D928A95E1F781E00895CF93DF9300D0E5
:1003E00000D0CDB7DEB7789413E088E2F82E02E0B3
:1003F0008091C80087FF0BC08091CE007ADF90917A
:100400006801892B809368015D9810936901809140
:100410006801882359F068E571E081E091E0FBD73D
:1004200081E091E00E942E0A10926801BE016F5F88
:100430007F4F81E091E00E94410A882341F064E00F
:10044000CE01019623DF5C9810936A01EFCF809173
:10045000C80085FF15C0E0915601809157018E17A5
:1004600079F081E08E0F80935601F0E0EA5CFE4F58
:1004700080818093CE00809156018F7180935601C8
:10048000A89B19C0A89A80916901882341F08091A6
:100490006901815080936901811101C05D9A809149
:1004A0006A01882341F080916A01815080936A013A
:1004B000811101C05C9A28D680913201813009F007
:1004C00097CF80910001815019F08093000190CF67
:1004D000F092000185B1802785B98ACF2FB7F894B3
:1004E00081EF91E090937202809371029093740275
:1004F000809373022FBF2FB7F8948CE691E090930E
:10050000ED018093EC019093EF018093EE012FBFFA
:100510007894D3E09FB7F894809175029FBF80389C
:1005200049F08AE091E015D797FD04C0682F81EF6C
:1005300091E071DE8FB7F894C091F0018FBFA89958
:1005400002C0C13658F1A89A8091F001882319F0B1
:100550005D98D0936901CC2349F08CE691E079DE77
:10056000682F8AE091E096D6C150F5CF809169015D
:10057000882341F080916901815080936901811144
:1005800001C05D9A80916A01882341F080916A01DF
:10059000815080936A01811101C05C9A9FB7F894E1
:1005A000809175029FBF882361F081EF91E051DE59
:1005B0009091C80095FFFCCF8093CE005C98D093BB
:1005C0006A018AE091E0B7D69FD5A4CF84B7877F30
:1005D00084BF0FB6F894A8958091600088618093DD
:1005E0006000109260000FBE82E084B98CE085B993
:1005F0001A9913C01092200187E690E09093CD00E5
:100600008093CC0086E08093CA001092C80088E1F5
:100610008093C900539A5A9A12C081E080932001B6
:100620001B9905C0809332011092CC0003C08FE16A
:100630008093CC0088E18093C9008EE085B984E086
:1006400085BD2BD38AB180638AB98BB180638BB9A6
:1006500080912001811102C05F9A579A0895B6DFF8
:1006600080912001813009F4B8DE38DF08950895C3
:1006700080912001813019F481E091E095C68AE0F3
:1006800091E0BEC580912001811103C08AE091E014
:100690004DC508950F931F93CF938C01FC0184895E
:1006A000813021F0823021F4C0E203C0C0E301C0F8
:1006B000C0E0F8018389823009F4C860F8018589B7
:1006C000873031F0883031F0863029F4C26003C0C1
:1006D000C46001C0C6601092C9001092C800109298
:1006E000CA00F80127853089418952892115F1EE28
:1006F0003F074105510581F0DA01C901B695A7957B
:1007000097958795BC01CD0160587B47814E9F4FDF
:10071000D6D62150310902C020E130E03093CD001F
:100720002093CC00C093CA00F80187859089A189E5
:10073000B2898115914EA105B10511F082E001C089
:1007400080E08093C80088E98093C900CF911F9111
:100750000F9108951F920F920FB60F9211242F93AD
:100760003F934F935F936F937F938F939F93AF9339
:10077000BF93EF93FF9380912001811108C0609196
:10078000CE008EB3843019F48CE691E044DDFF9105
:10079000EF91BF91AF919F918F917F916F915F91F9
:1007A0004F913F912F910F900FBE0F901F90189572
:1007B000FC01858580FF02C05F9808955F9A0895C7
:1007C000292F33272230310589F023303105C1F03C
:1007D0002130310509F056C080912001813009F4A3
:1007E00047C082E190E029EC31E050C080912001C7
:1007F000813009F442C08EE390E029E731E046C041
:1008000099278130910561F018F00297E9F03AC01C
:10081000E0E1F1E0E4918E2F90E020E131E036C09C
:1008200080912001813041F4E6EBF0E0E4918E2FDD
:1008300090E026EB30E02AC0ECEDF0E0E4918E2F62
:1008400090E02CED30E022C080912001813041F415
:10085000E8E8F0E0E4918E2F90E028E830E016C060
:10086000ECE9F0E0E4918E2F90E02CE930E00EC04E
:1008700082E190E027EB31E009C085E690E024E1D9
:1008800031E004C080E090E020E030E0FA01318304
:1008900020830895AC0128E030E080E0241735077C
:1008A00020F48F5F220F331FF9CF8295807F089548
:1008B0008093E900EBEEF0E0808181608083EDEED3
:1008C000F0E010826093EC0040838091EE00881F7E
:1008D0008827881F08951092F40080E08093E90033
:1008E0001092F0001092E8001092ED009091EB0051
:1008F0009E7F9093EB008F5F853081F70895809104
:100900007A0287FF0FC08091E80082FD04C08EB399
:100910008111F9CF10C08091E8008B770AC08EB3A7
:10092000882349F08091E80080FFF9CF8091E800AA
:100930008E778093E800089585E69091EC0090FF13
:1009400005C09091E80090FF05C01BC09091E800A1
:1009500092FD17C09EB39923B1F09EB39530A9F0D4
:100960009091EB0095FD13C09091E10092FFE5CFCF
:100970009091E1009B7F9093E1008150F1F684E03B
:10098000089580E0089582E0089583E0089581E06D
:100990000895EF92FF920F931F93CF93DF938C01F3
:1009A000EB017A01C9DF81111DC02097D1F0809140
:1009B000E80085FD0EC08091E8008E778093E80006
:1009C000E114F10479F3F7010995813059F785E0D5
:1009D00009C0F80180818093F10021970F5F1F4FBC
:1009E000E4CF80E0DF91CF911F910F91FF90EF90C6
:1009F0000895EF92FF920F931F93CF93DF938C0193
:100A0000EB017A0199DF81111DC02097D1F080910F
:100A1000E80085FD0EC08091E8008B778093E800A8
:100A2000E114F10479F3F7010995813059F785E074
:100A300009C08091F100F801808321970F5F1F4F5B
:100A4000E4CF80E0DF91CF911F910F91FF90EF9065
:100A5000089520918002309181022617370748F0CF
:100A60006115710539F42091E8002E772093E80094
:100A700001C0B90130E06115710561F12091E80014
:100A800023FD37C02091E80022FD2DC02EB3222384
:100A900091F12EB3253089F12091E80020FFEBCFB2
:100AA0002091F200FC01CF016115710549F0283059
:100AB00038F481918093F100615071092F5FF3CF79
:100AC00031E0283009F030E02091E8002E772093C3
:100AD000E800D1CF3111D2CF06C08EB3882359F0B0
:100AE0008EB3853051F08091E80082FFF6CF80E030
:100AF000089581E0089582E0089583E008952091AB
:100B00008002309181022617370748F06115710580
:100B100039F42091E8002E772093E80001C0B90154
:100B200030E06115710569F12091E80023FD38C0BE
:100B30002091E80022FD2EC02EB3222399F12EB37E
:100B4000253091F12091E80020FFEBCF2091F200B9
:100B5000FC01CF016115710551F0283040F48491FA
:100B60008093F100615071092F5F3196F2CF31E02F
:100B7000283009F030E02091E8002E772093E8003B
:100B8000D0CF3111D1CF06C08EB3882359F08EB3A8
:100B9000853051F08091E80082FFF6CF80E0089523
:100BA00081E0089582E0089583E00895611571055C
:100BB00029F42091E8002B772093E8006115710556
:100BC00011F12091E80023FD24C02EB3222319F156
:100BD0002EB3253011F12091E80022FFEFCF2091B4
:100BE000F200222331F301962091F100FC013197AC
:100BF00020836150710999F7DCCF8EB3882359F0B7
:100C00008EB3853051F08091E80080FFF6CF80E010
:100C1000089581E0089582E0089583E0089542D028
:100C200044D01EBA10927802109277021092760287
:100C300084E089BD89B5826089BD09B400FEFDCF1D
:100C40008091D800982F9F779093D80080688093E8
:100C5000D800809163008E7F809363008091D800DC
:100C60008F7D8093D8008091E0008E7F8093E0009C
:100C70008091E1008E7F8093E1008091E2008160AD
:100C80008093E2008091E100877F8093E100809172
:100C9000E20088608093E2000895C1DF81E08093E4
:100CA000790208951092E20008951092E1000895EB
:100CB0001F920F920FB60F9211242F933F934F93D1
:100CC0005F936F937F938F939F93AF93BF93EF93B4
:100CD000FF938091E10080FF1BC08091E20080FFC4
:100CE00017C08091E1008E7F8093E1008091E20047
:100CF0008E7F8093E2008091E20080618093E20029
:100D00008091D80080628093D80019BC1EBAAFDCF5
:100D10008091E10084FF29C08091E20084FF25C01A
:100D200084E089BD89B5826089BD09B400FEFDCF2C
:100D30008091D8008F7D8093D8008091E1008F7ED4
:100D40008093E1008091E2008F7E8093E2008091A9
:100D5000E20081608093E20080917802811102C0FC
:100D600081E001C084E08EBB81DC8091E10083FFE3
:100D700027C08091E20083FF23C08091E100877F3C
:100D80008093E10082E08EBB109278028091E100B6
:100D90008E7F8093E1008091E2008E7F8093E2005D
:100DA0008091E20080618093E20095DD42E060E0A6
:100DB00080E07EDD8091F00088608093F000A3D118
:100DC0008091E10082FF0AC08091E20082FF06C0AC
:100DD0008091E1008B7F8093E10095D1FF91EF91AD
:100DE000BF91AF919F918F917F916F915F914F9143
:100DF0003F912F910F900FBE0F901F9018951F924B
:100E00000F920FB60F921124FF920F931F932F93FF
:100E10003F934F935F936F937F938F939F93AF9382
:100E2000BF93CF93DF93EF93FF93C9EED0E0888118
:100E30008770F82E188200EF10E0F8018081877F1C
:100E4000808378941DD0F8941882F801808188609E
:100E50008083F882FF91EF91DF91CF91BF91AF91A5
:100E60009F918F917F916F915F914F913F912F91C2
:100E70001F910F91FF900F900FBE0F901F9018952C
:100E80001F93CF93DF93CDB7DEB7AA970FB6F89431
:100E9000DEBF0FBECDBFEAE7F2E082E892E020912C
:100EA000F10021938E179F07D1F780917A029091DC
:100EB0007B02492F50E04A30510508F018C1FA0171
:100EC000E65CFF4F1EC3803881F0823809F00FC105
:100ED00080917E0287708093E9008091EB0085FB12
:100EE000882780F91092E90006C0809176029091DF
:100EF0007702911182609091E800977F9093E800CB
:100F00008093F1001092F100C0C0282F2D7F09F0CE
:100F1000EEC0882319F0823061F0DAC080917C0243
:100F2000813009F0D5C0933009F080E080937702DA
:100F30002BC080917C02811127C080917E02877036
:100F400009F4C6C08093E9002091EB0020FFC0C0E7
:100F5000933021F48091EB00806214C09091EB00FB
:100F600090619093EB0021E030E0A90102C0440FB2
:100F7000551F8A95E2F74093EA001092EA008091AB
:100F8000EB0088608093EB001092E9008091E8000C
:100F9000877F7EC08111ABC010917C028091E800F8
:100FA000877F8093E800ABDC8091E80080FD04C07F
:100FB0008EB38111F9CF8CC0812F8F7711F492E01D
:100FC00001C093E09EBB80688093E30081C080589D
:100FD000823008F08CC080917C0290917D028C3D23
:100FE00053E0950779F583E08A838AE289833FB7E6
:100FF000F894DE01139690E02EE041E2E22FF0E05B
:1010000040935700E49190FF03C0E295EF702F5F8B
:10101000EF7080E38E0F8A3310F0E95C01C0E82F97
:10102000F0E0ED93FD939F5F943141F73FBF8091D6
:10103000E800877F8093E8006AE270E0CE010196C5
:1010400008DD12C0AE014F5F5F4F60917E02B8DBDA
:10105000BC01892B09F43CC09091E800977F9093E4
:10106000E80089819A814BDD8091E8008B7780933D
:10107000E8002EC08038D9F58091E800877F809302
:10108000E800809178028093F1008091E8008E77EB
:101090008093E80034DC1CC0811129C080917C025F
:1010A00090917D02992702979CF48091E800877FB8
:1010B0008093E80080917C028093780220DC80910C
:1010C0007802811102C083E001C084E08EBBD0DAD7
:1010D0008091E80083FF0DC08091EB0080628093D7
:1010E000EB008091E800877F8093E80002C0CADAB5
:1010F000EFCFAA960FB6F894DEBF0FBECDBFDF913B
:10110000CF911F9108950895CF938EB3882359F0FE
:10111000C091E900C7701092E9008091E80083FD5A
:10112000AFDEC093E900CF9108950895CF93DF9388
:101130002091E80023FF61C0FC01208130E0409154
:101140007E0250917F024217530709F056C0EC010E
:1011500080917B02813249F018F48032C9F04DC091
:10116000823261F18332C9F148C080917A02813ABA
:1011700009F043C08091E800877F8093E80067E032
:1011800070E0CF010F9665DC8091E8008B7713C08B
:1011900080917A02813289F58091E800877F80937F
:1011A000E80067E070E0CF010F9600DDCE0172DA53
:1011B0008091E8008E778093E8001FC080917A02CA
:1011C0008132D9F48091E800877F8093E800809194
:1011D0007C028587CF01ECDA0DC080917A028132E2
:1011E00061F48091E800877F8093E80060917C0241
:1011F000CF019BDFDF91CF9182CBDF91CF9108951B
:101200000F931F93CF93DF93EC01FC013D9689E090
:10121000DF011D928A95E9F78A819B812C8121113A
:1012200002C010E001C014E0098134DB812B482F9B
:10123000426061E8802F3CDB882331F18E819F8101
:101240002885211102C010E001C014E00D8122DBCD
:10125000812B482F426060E8802F2ADB8823A1F091
:101260008A859B852C85211102C010E001C014E005
:10127000C98510DB812B482F426061EC8C2FDF91F8
:10128000CF911F910F9114CB80E0DF91CF911F91EF
:101290000F9108950F931F93CF932EB32430F1F441
:1012A000FC010785108921893289012B022B032B30
:1012B000A9F0C62F81818093E9008091E80085FF25
:1012C00004C0C093F10080E00AC08091E8008E77EE
:1012D0008093E80031DB8823A1F301C082E0CF9145
:1012E0001F910F9108952EB3243019F5FC01478505
:1012F000508961897289452B462B472BD1F081811A
:101300008093E9008091F200882389F09091E800B1
:101310008091E8008E778093E80095FD08C00CDB93
:10132000811108C08091E8008E778093E80080E00A
:10133000089582E008952EB3243051F4FC014785CE
:10134000508961897289452B462B472B09F0CBCFF9
:1013500008952EB3243019F08FEF9FEF0895FC010C
:101360004785508961897289452B462B472BA1F30C
:1013700085818093E9008091E80082FFEDCF809124
:10138000F200882321F02091F10030E002C02FEF1D
:101390003FEF8091F200811105C08091E8008B77CA
:1013A0008093E800C90108950F931F93CF93DF93B3
:1013B000EC010981011105C01D81111114C081E0EA
:1013C00025C08A819B812C81211102C010E001C0BF
:1013D00014E060DA812B482F426061E8802F68DAE0
:1013E0008111EACF13C08E819F812885211102C00F
:1013F000C0E001C0C4E04EDA8C2B482F426060E8A8
:10140000812FDF91CF911F910F9152CADF91CF9120
:101410001F910F9108952EB32430F1F4FC018181C6
:101420008093E9008091E80085FD02C080E0089586
:10143000CB0140E050E064E070E0ABDA81110DC018
:101440009091E800892F807295FDF0CF9091E8008F
:101450009E779093E800089582E008952EB324309B
:1014600071F4FC0181818093E9008091F20088236E
:1014700039F08091E8008E778093E8005DCA82E0C1
:1014800008952EB3243011F080E00895FC01858189
:101490008093E9008091E80085FFF6CFCB0140E022
:1014A00050E064E070E0A5DA8091E80085FD05C0B9
:1014B0008091E8008B778093E80081E00895A1E2B5
:1014C0001A2EAA1BBB1BFD010DC0AA1FBB1FEE1FBE
:1014D000FF1FA217B307E407F50720F0A21BB30B09
:1014E000E40BF50B661F771F881F991F1A9469F785
:1014F00060957095809590959B01AC01BD01CF01E1
:101500000895EE0FFF1F0590F491E02D0994F894D3
:02151000FFCF0B
:1015120028010240000001400000000340000004D6
:10152200400000020800000000000000000000006F
:1015320001000003820584078609888A008C000F57
:021542008E0019
:00000001FF
